:020000040800F2
:1000000000000220A5110008191100081F110008A6
:10001000251100082B110008311100080000000014
:100020000000000000000000000000003711000880
:10003000451100080000000053110008611100087C
:10004000F5110008F5110008F5110008F511000878
:10005000F5110008F5110008F5110008F511000868
:10006000F5110008F5110008F5110008F511000858
:10007000F5110008F5110008F5110008F511000848
:10008000F5110008F51100086D11000800000000CE
:10009000000000000000000000000000F511000852
:1000A000F5110008F5110008F5110008F511000818
:1000B000F5110008F5110008F5110008F511000808
:1000C000F5110008F5110008F5110008F5110008F8
:1000D000F5110008F5110008F511000800000000F6
:1000E000F5110008F5110008F511000800000000E6
:1000F000000000000000000000000000F5110008F2
:1001000000000000F5110008F5110008F5110008C5
:1001100000000000000000000000000000000000DF
:10012000F5110008F5110008F5110008F511000897
:10013000F5110008000000000000000000000000B1
:10014000000000000000000000000000F5110008A1
:10015000F5110008F5110008F5110008F511000867
:10016000F5110008F5110008000000000000000073
:10017000000000000000000000000000000000007F
:1001800000000000F5110008000000000000000061
:08019000F5110008F51100084B
:1001980010B5054C237833B9044B13B10448AFF3B9
:1001A80000800123237010BD0C0000200000000017
:1001B8002C34000808B5034B1BB103490348AFF3BF
:1001C800008008BD00000000100000202C3400084A
:1001D80053B94AB9002908BF00281CBF4FF0FF31A6
:1001E8004FF0FF3000F074B9ADF1080C6DE904CEA2
:1001F80000F006F8DDF804E0DDE9022304B07047FA
:100208002DE9F047089D04468E46002B4DD18A42C1
:10021800944669D9B2FA82F252B101FA02F3C2F1F4
:10022800200120FA01F10CFA02FC41EA030E944085
:100238004FEA1C48210CBEFBF8F61FFA8CF708FBA6
:1002480016E341EA034306FB07F199420AD91CEB7E
:10025800030306F1FF3080F01F81994240F21C81B0
:10026800023E63445B1AA4B2B3FBF8F008FB1033F8
:1002780044EA034400FB07F7A7420AD91CEB04042D
:1002880000F1FF3380F00A81A74240F207816444FD
:10029800023840EA0640E41B00261DB1D440002382
:1002A800C5E900433146BDE8F0878B4209D9002DE6
:1002B80000F0EF800026C5E9000130463146BDE870
:1002C800F087B3FA83F6002E4AD18B4202D38242DA
:1002D80000F2F980841A61EB030301209E46002D89
:1002E800E0D0C5E9004EDDE702B9FFDEB2FA82F2DE
:1002F800002A40F09280A1EB0C014FEA1C471FFA3C
:100308008CFE0126200CB1FBF7F307FB131140EA22
:1003180001410EFB03F0884208D91CEB010103F1EF
:10032800FF3802D2884200F2CB804346091AA4B2B1
:10033800B1FBF7F007FB101144EA01440EFB00FE85
:10034800A64508D91CEB040400F1FF3102D2A645EA
:1003580000F2BB800846A4EB0E0440EA03409CE789
:10036800C6F12007B34022FA07FC4CEA030C20FA36
:1003780007F401FA06F31C43F9404FEA1C4900FA56
:1003880006F3B1FBF9F8200C1FFA8CFE09FB1811D3
:1003980040EA014108FB0EF0884202FA06F20BD946
:1003A8001CEB010108F1FF3A80F08880884240F296
:1003B8008580A8F102086144091AA4B2B1FBF9F0DA
:1003C80009FB101144EA014100FB0EFE8E4508D9D5
:1003D8001CEB010100F1FF346CD28E456AD902385A
:1003E800614440EA0840A0FB0294A1EB0E01A1423F
:1003F800C846A64656D353D05DB1B3EB080261EBAD
:100408000E0101FA07F722FA06F3F1401F43C5E986
:10041800007100263146BDE8F087C2F12003D840BC
:100428000CFA02FC21FA03F3914001434FEA1C47FE
:100438001FFA8CFEB3FBF7F007FB10360B0C43EAF0
:10044800064300FB0EF69E4204FA02F408D91CEBA0
:10045800030300F1FF382FD29E422DD9023863449E
:100468009B1B89B2B3FBF7F607FB163341EA03413E
:1004780006FB0EF38B4208D91CEB010106F1FF388D
:1004880016D28B4214D9023E6144C91A46EA004684
:1004980038E72E46284605E70646E3E61846F8E616
:1004A8004B45A9D2B9EB020864EB0C0E0138A3E75F
:1004B8004646EAE7204694E74046D1E7D0467BE740
:1004C800023B614432E7304609E76444023842E7B8
:1004D800704700BF80B582B000AF03460A46FB7183
:1004E8001346BB71BB79002B05D0012202211148AC
:1004F80001F016FE04E0002202210E4801F010FE71
:10050800002204210B4801F00BFEF91D4FF47A7309
:100518000122094802F00BFB01220421054801F0E1
:10052800FFFD01220221034801F0FAFD00BF083750
:10053800BD4680BD000402407000002080B582B036
:1005480000AF0346FB710B46BB711346BB80FB79BA
:100558005F2B2BD8BB793F2B28D800211520FFF71C
:10056800B9FFFB7900211846FFF7B4FF00215F208F
:10057800FFF7B0FF00217520FFF7ACFFBB79002122
:100588001846FFF7A7FF00213F20FFF7A3FFBB880E
:100598001B0A9BB2DBB201211846FFF79BFFBB8801
:1005A800DBB201211846FFF795FF00E000BF0837CE
:1005B800BD4680BD80B584B000AF0346FB800023F4
:1005C800FB8113E00023BB810AE0BB89DBB2FA8917
:1005D800D1B2FA881846FFF7B1FFBB890133BB8156
:1005E800BB895F2BF1D9FB890133FB81FB893F2B49
:1005F800E8D900BF00BF1037BD4680BD80B500AF49
:1006080001228021524801F08BFD0122042151482A
:1006180001F086FD0021AE20FFF75CFF002181205C
:10062800FFF758FF0021FF20FFF754FF0021822029
:10063800FFF750FF0021FF20FFF74CFF0021832028
:10064800FFF748FF0021FF20FFF744FF0021872024
:10065800FFF740FF00210620FFF73CFF00218A201A
:10066800FFF738FF00216420FFF734FF00218B20BB
:10067800FFF730FF00217820FFF72CFF00218C20A6
:10068800FFF728FF00216420FFF724FF0021A020A6
:10069800FFF720FF00217220FFF71CFF0021A12097
:1006A800FFF718FF00210020FFF714FF0021A22008
:1006B800FFF710FF00210020FFF70CFF0021A42006
:1006C800FFF708FF0021A820FFF704FF00213F20C3
:1006D800FFF700FF0021AD20FFF7FCFE00218E2070
:1006E800FFF7F8FE0021B020FFF7F4FE00210020FC
:1006F800FFF7F0FE0021B120FFF7ECFE00213120CA
:10070800FFF7E8FE0021B320FFF7E4FE0021F02008
:10071800FFF7E0FE0021BB20FFF7DCFE00213A20B6
:10072800FFF7D8FE0021BE20FFF7D4FE00213E20AF
:10073800FFF7D0FE00212E20FFF7CCFE0021AF20CE
:10074800FFF7C8FE0020FFF735FF00BF80BD00BFE0
:10075800001002400004024080B582B000AF78600B
:10076800154B1B7883F00103DBB2002B1FD0134815
:1007780000F0E6FF0346DAB2114B1A70104B1978F5
:10078800104B1B78DBB21A4689B20F4B23F81210B4
:100798000C4B1B78DBB20133DAB20A4B1A70094BE7
:1007A8001B78DBB2592B02D9034B01221A7000BF08
:1007B8000837BD4680BD00BF590100202800002031
:1007C80058010020100200205C01002080B582B092
:1007D80000AF00F00DFD00F04FF800F0EBF900F06D
:1007E80007F900F0B3F800F039F900F08FF91C4868
:1007F80000F0D8FD3C211B4802F046FC3C211A4879
:1008080002F042FCFFF7FAFE0020FFF7D3FE174B79
:100818001B78002BFBD000237B6013E07B68D8B2E9
:10082800134A7B6832F81330124AA2FB03235B0891
:100838009BB2DBB24FF6E0721946FFF77FFE7B688A
:1008480001337B607B68582BE8DD4FF4FA7000F0C9
:1008580041FD0020FFF7AEFE044B00221A70D6E7D8
:1008680028000020C80000201001002059010020A5
:100878005C010020ABAAAAAA80B594B000AF07F12A
:10088800200330220021184602F0C4FD07F10C03B2
:1008980000221A605A609A60DA601A610023BB600D
:1008A800284B1B6C274A43F080531364254B1B6C61
:1008B80003F08053BB60BB6800237B60224B1B683E
:1008C800214A43F4404313601F4B1B6803F4404321
:1008D8007B607B6802233B620123FB6210233B633E
:1008E8000223BB630023FB6308233B6464237B640C
:1008F8000223BB640823FB6407F12003184601F0B8
:1009080029FC0346002B01D000F0A2FA0F23FB605C
:1009180002233B6100237B614FF48053BB614FF49A
:100928008053FB6107F10C030321184601F08AFE8E
:100938000346002B01D000F08BFA00BF5037BD46AC
:1009480080BD00BF003802400070004080B584B010
:1009580000AF3B4600221A605A609A60DA60214B69
:10096800214A1A601F4B00225A601E4B4FF000723A
:100978009A601C4B00221A611A4B01221A76194BF5
:10098800002283F82020174B0022DA62154B174A01
:100998009A62144B0022DA60124B0122DA61114B81
:1009A800002283F830200F4B01225A610D4800F0D5
:1009B800B5FC0346002B01D000F04AFA01233B6046
:1009C80001237B600523BB603B461946054800F0C0
:1009D800D9FE0346002B01D000F03AFA00BF1037C9
:1009E800BD4680BD28000020002001400100000F06
:1009F80080B500AF174B184A1A60164B4FF4827235
:100A08005A60144B00229A60124B0022DA60114B94
:100A180002221A610F4B01225A610E4B4FF40072E9
:100A28009A610C4B0022DA610A4B00221A62094BC8
:100A380000225A62074B00229A62064B0A22DA62A7
:100A4800044801F0EBFF0346002B01D000F000FA48
:100A580000BF80BD700000200030014080B58CB020
:100A680000AF07F10C0324220021184602F0D2FC43
:100A78003B1D00221A605A60224B234A1A60214B00
:100A880000225A601F4B00229A601E4B40F29312BC
:100A9800DA601C4B00221A611A4B00225A61194B6A
:100AA80000229A610323FB6000233B6101237B61E1
:100AB8000023BB610F23FB6100233B6201237B62A0
:100AC8000023BB620F23FB6207F10C0319460D4894
:100AD80002F034FA0346002B01D000F0B9F90023E4
:100AE8007B600023BB603B1D1946064802F000FCF2
:100AF8000346002B01D000F0ABF900BF3037BD46EC
:100B080080BD00BFC80000200000014080B58CB047
:100B180000AF07F10C0324220021184602F07AFCEA
:100B28003B1D00221A605A60204B214A1A601F4B55
:100B380000225A601D4B00229A601C4B40F293120F
:100B4800DA601A4B00221A61184B00229A610323BB
:100B5800FB6000233B6101237B610023BB610F2302
:100B6800FB6100233B6201237B620023BB620F23EE
:100B7800FB6207F10C0319460C4802F0DFF9034643
:100B8800002B01D000F064F900237B600023BB60D8
:100B98003B1D1946054802F0ABFB0346002B01D06C
:100BA80000F056F900BF3037BD4680BD1001002067
:100BB8000004004080B58CB000AF07F11C03002290
:100BC8001A605A609A60DA601A610023BB619A4B16
:100BD8001B6B994A43F010031363974B1B6B03F08D
:100BE8001003BB61BB6900237B61934B1B6B924A6B
:100BF80043F004031363904B1B6B03F004037B6106
:100C08007B6900233B618C4B1B6B8B4A43F0800351
:100C18001363894B1B6B03F080033B613B69002323
:100C2800FB60854B1B6B844A43F001031363824BC3
:100C38001B6B03F00103FB60FB680023BB607E4B6A
:100C48001B6B7D4A43F0020313637B4B1B6B03F062
:100C58000203BB60BB6800237B60774B1B6B764A43
:100C680043F008031363744B1B6B03F008037B60AA
:100C78007B6800228821714801F052FA0122012183
:100C88006F4801F04DFA002206216E4801F048FA3B
:100C9800002210216C4801F043FA0423FB61002371
:100CA8003B6200237B6207F11C031946634801F08D
:100CB800B3F88823FB6101233B6200237B62002396
:100CC800BB6207F11C0319465C4801F0A5F8322302
:100CD800FB614FF490133B6200237B6207F11C0316
:100CE8001946564801F098F80123FB6101233B623D
:100CF80000237B620023BB6207F11C03194650489E
:100D080001F08AF80823FB6102233B6200237B621F
:100D18000023BB620523FB6207F11C031946484800
:100D280001F07AF80123FB614FF490133B62002332
:100D38007B6207F11C031946444801F06DF806234D
:100D4800FB6101233B6200237B620023BB6207F146
:100D58001C0319463B4801F05FF84FF4A053FB61B0
:100D680002233B6200237B620023BB620523FB62F4
:100D780007F11C031946334801F04EF84FF4A45309
:100D8800FB6102233B6200237B620023BB620623D4
:100D9800FB6207F11C031946294801F03DF84FF49E
:100DA8000073FB6100233B6200237B6207F11C0395
:100DB8001946264801F030F84FF4E053FB6102234E
:100DC8003B6200237B620323BB620A23FB6207F1B9
:100DD8001C0319461D4801F01FF81023FB6101236D
:100DE8003B6200237B620023BB6207F11C031946A8
:100DF800154801F011F82023FB6100233B62002312
:100E08007B6207F11C0319460F4801F005F84FF4FF
:100E18001073FB6112233B6200237B620023BB62D9
:100E28000423FB6207F11C031946064800F0F4FF8F
:100E380000BF3037BD4680BD003802400010024078
:100E48000008024000040240000C0240000002407A
:100E580080B400AF72B600BFFEE7000080B582B074
:100E680000AF00237B60104B5B6C0F4A43F4804358
:100E780053640D4B5B6C03F480437B607B680023F9
:100E88003B60094B1B6C084A43F080531364064BC4
:100E98001B6C03F080533B603B68072000F07AFF2F
:100EA80000BF0837BD4680BD0038024080B58AB013
:100EB80000AF786007F1140300221A605A609A6044
:100EC800DA601A617B681B681B4A93422FD10023A2
:100ED8003B611A4B5B6C194A43F480735364174B9C
:100EE8005B6C03F480733B613B690023FB60134B2D
:100EF8001B6B124A43F001031363104B1B6B03F087
:100F08000103FB60FB6802237B610323BB610023B1
:100F1800FB6107F114031946094800F07DFF002220
:100F28000021122000F041FF122000F05AFF00BFFC
:100F38002837BD4680BD00BF002001400038024070
:100F48000000024080B58AB000AF786007F1140352
:100F580000221A605A609A60DA601A617B681B681E
:100F6800194A93422BD100233B61184B5B6C174AFB
:100F780043F480535364154B5B6C03F480533B611B
:100F88003B690023FB60114B1B6B104A43F00103C4
:100F980013630E4B1B6B03F00103FB60FB68A0237C
:100FA8007B610223BB610023FB6103233B620523B2
:100FB8007B6207F114031946054800F02DFF00BFB6
:100FC8002837BD4680BD00BF0030014000380240D0
:100FD8000000024080B58CB000AF786007F11C03B8
:100FE80000221A605A609A60DA601A617B681B688E
:100FF800414A93422DD10023BB61404B5B6C3F4A71
:1010080043F0010353643D4B5B6C03F00103BB6188
:10101800BB6900237B61394B1B6B384A43F01003D3
:101028001363364B1B6B03F010037B617B694FF432
:101038002063FB6102233B6200237B620023BB62C7
:101048000123FB6207F11C0319462D4800F0E4FE5A
:101058004EE07B681B682B4A934249D100233B61D1
:10106800264B1B6C254A43F002031364234B1B6C6D
:1010780003F002033B613B690023FB601F4B1B6BC2
:101088001E4A43F0010313631C4B1B6B03F001035F
:10109800FB60FB680023BB60184B1B6B174A43F0CF
:1010A80002031363154B1B6B03F00203BB60BB68A1
:1010B8004023FB6102233B6200237B620023BB6267
:1010C8000223FB6207F11C0319460F4800F0A4FE37
:1010D8002023FB6102233B6200237B620023BB6267
:1010E8000223FB6207F11C031946084800F094FE2E
:1010F80000BF3037BD4680BD0000014000380240C7
:1011080000100240000400400000024000040240B9
:1011180080B400AFFEE780B400AFFEE780B400AF54
:10112800FEE780B400AFFEE780B400AFFEE780B40E
:1011380000AF00BFBD465DF8047B704780B400AFC8
:1011480000BFBD465DF8047B704780B400AF00BFA8
:10115800BD465DF8047B704780B500AF00F09AF893
:1011680000BF80BD80B500AF024800F0D9F900BFCC
:1011780080BD00BF2800002080B400AF064BD3F824
:101188008830054A43F47003C2F8883000BFBD4672
:101198005DF8047B704700BF00ED00E0DFF834D055
:1011A8000D480E490E4A002302E0D458C4500433B7
:1011B800C4188C42F9D30B4A0B4C002301E013608E
:1011C8000432A242FBD3FFF7D7FF02F0FFF8FFF784
:1011D800FDFA704700000220000000200C000020EB
:1011E800643400080C00002018020020FEE700000C
:1011F80080B500AF0E4B1B680D4A43F400731360B3
:101208000B4B1B680A4A43F480631360084B1B6846
:10121800074A43F480731360032000F0BBFD0020ED
:1012280000F008F8FFF71AFE0023184680BD00BF3B
:10123800003C024080B582B000AF7860124B1A685B
:10124800124B1B7819464FF47A73B3FBF1F3B2FBD8
:10125800F3F3184600F0D3FD0346002B01D0012319
:101268000EE07B680F2B0AD8002279684FF0FF3018
:1012780000F09BFD064A7B681360002300E0012311
:1012880018460837BD4680BD000000200800002031
:101298000400002080B400AF064B1B781A46064BAA
:1012A8001B681344044A136000BFBD465DF8047B05
:1012B800704700BF080000201402002080B400AF6F
:1012C800034B1B681846BD465DF8047B704700BF9A
:1012D8001402002080B584B000AF7860FFF7EEFFFD
:1012E800B8607B68FB60FB68B3F1FF3F05D00A4B31
:1012F8001B781A46FB681344FB6000BFFFF7DEFF4C
:101308000246BB68D31AFA689A42F7D800BF00BFF2
:101318001037BD4680BD00BF0800002080B584B0EE
:1013280000AF78600023FB737B68002B01D1012399
:1013380033E07B681B6C002B09D17868FFF7B6FD9A
:101348007B6800225A647B68002283F83C207B6813
:101358001B6C03F01003002B18D17B681B6C23F463
:10136800885323F0020343F002027B681A6478680A
:1013780000F03AFB7B6800225A647B681B6C23F000
:10138800030343F001027B681A6401E00123FB7345
:101398007B68002283F83C20FB7B18461037BD464B
:1013A80080BD000080B485B000AF78600023BB60CA
:1013B8007B6893F83C30012B01D10223A1E07B68C4
:1013C800012283F83C207B681B689B6803F00103BB
:1013D800012B18D07B681B689A687B681B6842F0F1
:1013E80001029A604A4B1B684A4AA2FB03239A0CE3
:1013F80013465B001344BB6002E0BB68013BBB6063
:10140800BB68002BF9D17B681B689B6803F001035C
:10141800012B69D17B681B6C23F4E06323F0010383
:1014280043F480727B681A647B681B685B6803F40A
:101438008063002B07D07B681B6C23F4405343F474
:1014480080527B681A647B681B6C03F48053B3F585
:10145800805F06D17B685B6C23F006027B685A6468
:1014680002E07B6800225A647B68002283F83C20F3
:10147800294BFB607B681B686FF022021A607B684F
:101488001B685B687A68126843F0806343F0200346
:101498005360FB685B6803F01F03002B0FD17B6868
:1014A8001B689B6803F04053002B29D17B681B689D
:1014B8009A687B681B6842F080429A6020E07B68EB
:1014C8001B68164A93421BD17B681B689B6803F014
:1014D8004053002B14D17B681B689A687B681B6893
:1014E80042F080429A600BE07B681B6C43F010026C
:1014F8007B681A647B685B6C43F001027B685A6402
:10150800002318461437BD465DF8047B704700BFBA
:101518000000002083DE1B4300230140002001401F
:1015280080B586B000AF786000237B6100233B6103
:101538007B681B681B68FB607B681B685B68BB601B
:10154800FB6803F002037B61BB6803F020033B6187
:101558007B69002B49D03B69002B46D07B681B6C0C
:1015680003F01003002B05D17B681B6C43F4007259
:101578007B681A647B681B689B6803F04053002BE8
:101588002BD17B681B7E002B27D17B681B68DB6A0D
:1015980003F47003002B06D07B681B689B6803F478
:1015A8008063002B19D17B681B685A687B681B68AD
:1015B80022F020025A607B681B6C23F480727B68DF
:1015C8001A647B681B6C03F48053002B05D17B687D
:1015D8001B6C43F001027B681A647868FFF7BCF85B
:1015E8007B681B686FF012021A60FB6803F0040343
:1015F8007B61BB6803F080033B617B69002B57D09C
:101608003B69002B54D07B681B6C03F01003002B44
:1016180005D17B681B6C43F400527B681A647B68B5
:101628001B689B6803F44013002B39D17B681B6847
:101638009B6B03F44013002B06D07B681B689B68E8
:1016480003F48063002B2BD17B681B685B6803F471
:101658008063002B24D17B681B689B6803F0405390
:10166800002B1DD17B681B7E002B19D17B681B6862
:101678005A687B681B6822F080025A607B681B6C82
:1016880023F480527B681A647B681B6C03F48073B4
:10169800002B05D17B681B6C43F001027B681A6440
:1016A800786800F09DFA7B681B686FF00C021A607E
:1016B800FB6803F001037B61BB6803F040033B61F7
:1016C8007B69002B17D03B69002B14D07B681B6803
:1016D8001B6803F00103012B0DD17B681B6C43F4DD
:1016E80080327B681A64786800F037F87B681B687A
:1016F8006FF001021A60FB6803F020037B61BB688E
:1017080003F080633B617B69002B15D03B69002B9C
:1017180012D07B685B6C43F002027B685A647B687A
:101728001B686FF020021A60786800F020F87B6868
:101738001B686FF020021A6000BF1837BD4680BDD5
:1017480080B483B000AF78607B681B68DB6C184698
:101758000C37BD465DF8047B704780B483B000AF9A
:10176800786000BF0C37BD465DF8047B704780B4D5
:1017780083B000AF786000BF0C37BD465DF8047BCE
:101788007047000080B485B000AF786039600023EE
:10179800BB607B6893F83C30012B01D1022313E135
:1017A8007B68012283F83C203B681B68092B25D9FC
:1017B8007B681B68D9683B681B689BB21A4613464E
:1017C8005B0013441E3B072202FA03F3DA437B68EB
:1017D8001B680A40DA607B681B68D9683B689A68AE
:1017E8003B681B689BB2184603465B0003441E3BDC
:1017F8009A407B681B680A43DA6022E07B681B68B2
:1018080019693B681B689BB21A4613465B00134470
:10181800072202FA03F3DA437B681B680A401A615D
:101828007B681B6819693B689A683B681B689BB2B0
:10183800184603465B0003449A407B681B680A43CA
:101848001A613B685B68062B24D87B681B68596B58
:101858003B685A6813469B001344053B1F2202FA53
:1018680003F3DA437B681B680A405A637B681B688A
:10187800596B3B681B689BB218463B685A6813460D
:101888009B001344053B00FA03F27B681B680A437C
:101898005A634CE03B685B680C2B24D87B681B6858
:1018A800196B3B685A6813469B001344233B1F225D
:1018B80002FA03F3DA437B681B680A401A637B6801
:1018C8001B68196B3B681B689BB218463B685A68D3
:1018D80013469B001344233B00FA03F27B681B6802
:1018E8000A431A6323E07B681B68D96A3B685A6815
:1018F80013469B001344413B1F2202FA03F3DA43C9
:101908007B681B680A40DA627B681B68D96A3B6897
:101918001B689BB218463B685A6813469B001344E1
:10192800413B00FA03F27B681B680A43DA62294BE1
:10193800FB607B681B68284A93420FD13B681B6891
:10194800122B0BD1FB685B6823F40002FB685A601A
:10195800FB685B6843F48002FB685A607B681B681D
:101968001D4A93422BD13B681B681C4A934203D003
:101978003B681B68112B22D1FB685B6823F480024B
:10198800FB685A60FB685B6843F40002FB685A60B6
:101998003B681B68114A934211D1114B1B68114ACD
:1019A800A2FB03239A0C13469B0013445B00BB6005
:1019B80002E0BB68013BBB60BB68002BF9D17B68C8
:1019C800002283F83C20002318461437BD465DF8F2
:1019D800047B7047002301400020014012000010E2
:1019E8000000002083DE1B4380B485B000AF786020
:1019F800794BFB60FB685B6823F44032FB685A60F4
:101A0800FB685A687B685B681A43FB685A607B68A6
:101A18001B685A687B681B6822F480725A607B686E
:101A28001B6859687B681B691A027B681B680A4334
:101A38005A607B681B685A687B681B6822F0407292
:101A48005A607B681B6859687B689A687B681B6862
:101A58000A435A607B681B689A687B681B6822F493
:101A680000629A607B681B6899687B68DA687B68A3
:101A78001B680A439A607B689B6A584A934222D043
:101A88007B681B689A687B681B6822F070629A60A2
:101A98007B681B6899687B689A6A7B681B680A433D
:101AA8009A607B681B689A687B681B6822F04052C2
:101AB8009A607B681B6899687B68DA6A7B681B6830
:101AC8000A439A600FE07B681B689A687B681B680A
:101AD80022F070629A607B681B689A687B681B6852
:101AE80022F040529A607B681B689A687B681B6882
:101AF80022F002029A607B681B6899687B681B7EEB
:101B08005A007B681B680A439A607B6893F8203008
:101B1800002B1BD07B681B685A687B681B6842F4E3
:101B280000625A607B681B685A687B681B6822F4ED
:101B380060425A607B681B6859687B685B6A013B36
:101B48005A037B681B680A435A6007E07B681B6876
:101B58005A687B681B6822F400625A607B681B68BD
:101B6800DA6A7B681B6822F47002DA627B681B6899
:101B7800D96A7B68DB69013B1A057B681B680A43E5
:101B8800DA627B681B689A687B681B6822F40072BB
:101B98009A607B681B6899687B6893F830305A02B2
:101BA8007B681B680A439A607B681B689A687B6835
:101BB8001B6822F480629A607B681B6899687B685E
:101BC8005B699A027B681B680A439A6000BF1437F6
:101BD800BD465DF8047B7047002301400100000FFB
:101BE80080B483B000AF786000BF0C37BD465DF8A5
:101BF800047B704780B485B000AF78607B6803F0E1
:101C08000703FB600C4BDB68BB60BA684FF6FF0349
:101C18001340BB60FB681A02BB68134343F0BF6301
:101C280043F40033BB60044ABB68D36000BF143779
:101C3800BD465DF8047B704700ED00E080B400AF5E
:101C4800044BDB681B0A03F007031846BD465DF822
:101C5800047B704700ED00E080B483B000AF03461A
:101C6800FB7197F90730002B0BDBFB7903F01F02A0
:101C7800074997F907305B09012000FA02F241F899
:101C8800232000BF0C37BD465DF8047B704700BFBA
:101C980000E100E080B483B000AF03463960FB7117
:101CA80097F90730002B0ADB3B68DAB20C4997F941
:101CB80007301201D2B20B4483F800230AE03B68D4
:101CC800DAB20849FB7903F00F03043B1201D2B2E0
:101CD8000B441A7600BF0C37BD465DF8047B70478D
:101CE80000E100E000ED00E080B489B000AFF860EA
:101CF800B9607A60FB6803F00703FB61FB69C3F115
:101D08000703042B28BF0423BB61FB690433062B9C
:101D180002D9FB69033B00E000237B614FF0FF32EF
:101D2800BB6902FA03F3DA43BB681A407B699A403D
:101D38004FF0FF317B6901FA03F3D9437B680B400D
:101D4800134318462437BD465DF8047B70470000EE
:101D580080B582B000AF78607B68013BB3F1807FCB
:101D680001D301230FE00A4A7B68013B53600F212E
:101D78004FF0FF30FFF78EFF054B00229A60044BAF
:101D880007221A60002318460837BD4680BD00BFE9
:101D980010E000E080B582B000AF78607868FFF7A7
:101DA80029FF00BF0837BD4680BD80B586B000AFAB
:101DB8000346B9607A60FB7300237B61FFF73EFF3F
:101DC80078617A68B9687869FFF78EFF024697F9F3
:101DD8000F3011461846FFF75DFF00BF1837BD46A4
:101DE80080BD80B582B000AF0346FB7197F907301C
:101DF8001846FFF731FF00BF0837BD4680BD80B5E4
:101E080082B000AF78607868FFF7A2FF03461846F3
:101E18000837BD4680BD000080B489B000AF786047
:101E2800396000237B6100233B610023BB610023F1
:101E3800FB6159E10122FB6902FA03F37B613B680C
:101E48001B687A6913403B613A697B699A4240F0A2
:101E580048813B685B6803F00303012B05D03B68AE
:101E68005B6803F00303022B30D17B689B68BB617E
:101E7800FB695B00032202FA03F3DB43BA691340F0
:101E8800BB613B68DA68FB695B0002FA03F3BA6975
:101E98001343BB617B68BA699A607B685B68BB6106
:101EA8000122FB6902FA03F3DB43BA691340BB6101
:101EB8003B685B681B0903F00102FB6902FA03F344
:101EC800BA691343BB617B68BA695A603B685B684F
:101ED80003F00303032B17D07B68DB68BB61FB6946
:101EE8005B00032202FA03F3DB43BA691340BB61C8
:101EF8003B689A68FB695B0002FA03F3BA6913430B
:101F0800BB617B68BA69DA603B685B6803F003030E
:101F1800022B23D1FB69DA087B68083253F8223098
:101F2800BB61FB6903F007039B000F2202FA03F36E
:101F3800DB43BA691340BB613B681A69FB6903F06C
:101F480007039B0002FA03F3BA691343BB61FB69F9
:101F5800DA087B680832B96943F822107B681B6885
:101F6800BB61FB695B00032202FA03F3DB43BA6936
:101F78001340BB613B685B6803F00302FB695B00CD
:101F880002FA03F3BA691343BB617B68BA691A6042
:101F98003B685B6803F44033002B00F0A280002309
:101FA800FB60574B5B6C564A43F480435364544B75
:101FB8005B6C03F48043FB60FB68524AFB699B0837
:101FC800023352F82330BB61FB6903F003039B0023
:101FD8000F2202FA03F3DB43BA691340BB617B6843
:101FE800494A934219D07B68484A934213D07B6888
:101FF800474A93420DD07B68464A934207D07B6894
:10200800454A934201D1042308E0072306E003234D
:1020180004E0022302E0012300E00023FA6902F051
:10202800030292009340BA691343BB613549FB69C7
:102038009B080233BA6941F82320384B9B68BB617F
:102048003B69DB43BA691340BB613B685B6803F4D7
:102058008013002B03D0BA693B691343BB612F4A35
:10206800BB6993602D4BDB68BB613B69DB43BA6995
:102078001340BB613B685B6803F40013002B03D07B
:10208800BA693B691343BB61244ABB69D360234BDC
:102098005B68BB613B69DB43BA691340BB613B6862
:1020A8005B6803F40033002B03D0BA693B69134320
:1020B800BB611A4ABB695360184B1B68BB613B691B
:1020C800DB43BA691340BB613B685B6803F4803348
:1020D800002B03D0BA693B691343BB610F4ABB6944
:1020E8001360FB690133FB61FB690F2B7FF6A2AE1E
:1020F80000BF00BF2437BD465DF8047B704700BFB2
:10210800003802400038014000000240000402404C
:1021180000080240000C024000100240003C014050
:1021280080B483B000AF78600B467B8013467B7029
:102138007B78002B03D07A887B689A6103E07B88E0
:102148001A047B689A6100BF0C37BD465DF8047BB2
:102158007047000080B586B000AF78607B68002BC0
:1021680001D1012367E27B681B6803F00103002BA0
:1021780075D0884B9B6803F00C03042B0CD0854B5F
:102188009B6803F00C03082B12D1824B5B6803F4A5
:102198008003B3F5800F0BD17E4B1B6803F400332B
:1021A800002B5BD07B685B68002B57D1012342E290
:1021B8007B685B68B3F5803F06D1764B1B68754A30
:1021C80043F4803313601DE07B685B68B3F5A02F90
:1021D8000CD1704B1B686F4A43F4802313606D4B1E
:1021E8001B686C4A43F4803313600BE0694B1B682F
:1021F800684A23F480331360664B1B68654A23F4EE
:10220800802313607B685B68002B13D0FFF756F8B8
:10221800386108E0FFF752F802463B69D31A642B8D
:1022280001D9032307E25B4B1B6803F40033002B3F
:10223800F0D014E0FFF742F8386108E0FFF73EF805
:1022480002463B69D31A642B01D90323F3E1514BAE
:102258001B6803F40033002BF0D100E000BF7B685B
:102268001B6803F00203002B63D04A4B9B6803F002
:102278000C03002B0BD0474B9B6803F00C03082B77
:102288001CD1444B5B6803F48003002B16D1414BEF
:102298001B6803F00203002B05D07B68DB68012B69
:1022A80001D00123C7E13B4B1B6823F0F8027B6890
:1022B8001B69DB00374913430B603AE07B68DB6836
:1022C800002B20D0344B01221A60FEF7F7FF38614B
:1022D80008E0FEF7F3FF02463B69D31A022B01D947
:1022E8000323A8E12B4B1B6803F00203002BF0D05B
:1022F800284B1B6823F0F8027B681B69DB00254923
:1023080013430B6015E0244B00221A60FEF7D6FF3A
:10231800386108E0FEF7D2FF02463B69D31A022B68
:1023280001D9032387E11B4B1B6803F00203002B31
:10233800F0D17B681B6803F00803002B36D07B685C
:102348005B69002B16D0154B01221A60FEF7B6FF09
:10235800386108E0FEF7B2FF02463B69D31A022B48
:1023680001D9032367E10B4B5B6F03F00203002BDA
:10237800F0D01BE0094B00221A60FEF79FFF38617E
:102388000EE0FEF79BFF02463B69D31A022B07D9E2
:10239800032350E10038024000004742800E4742C4
:1023A800884B5B6F03F00203002BEAD17B681B6844
:1023B80003F00403002B00F097800023FB75814B8A
:1023C8001B6C03F08053002B0FD10023BB607D4BA7
:1023D8001B6C7C4A43F0805313647A4B1B6C03F0EC
:1023E8008053BB60BB680123FB75774B1B6803F404
:1023F8008073002B18D1744B1B68734A43F48073A5
:102408001360FEF75BFF386108E0FEF757FF0246EE
:102418003B69D31A022B01D903230CE16A4B1B68D1
:1024280003F48073002BF0D07B689B68012B06D1E6
:10243800644B1B6F634A43F0010313671CE07B681E
:102448009B68052B0CD15F4B1B6F5E4A43F004035E
:1024580013675C4B1B6F5B4A43F0010313670BE088
:10246800584B1B6F574A23F001031367554B1B6FDB
:10247800544A23F0040313677B689B68002B15D02C
:10248800FEF71CFF38610AE0FEF718FF02463B69B9
:10249800D31A41F28832934201D90323CBE0494B46
:1024A8001B6F03F00203002BEED014E0FEF706FFCB
:1024B80038610AE0FEF702FF02463B69D31A41F28F
:1024C8008832934201D90323B5E03E4B1B6F03F0DA
:1024D8000203002BEED1FB7D012B05D1394B1B6C80
:1024E800384A23F0805313647B689B69002B00F003
:1024F800A180344B9B6803F00C03082B5CD07B68ED
:102508009B69022B41D1314B00221A60FEF7D6FE9F
:10251800386108E0FEF7D2FE02463B69D31A022B67
:1025280001D9032387E0274B1B6803F00073002BB6
:10253800F0D17B68DA697B681B6A1A437B685B6A3F
:102548009B011A437B689B6A5B08013B1B041A4387
:102558007B68DB6A1B061B4913434B601B4B01223C
:102568001A60FEF7ABFE386108E0FEF7A7FE0246E8
:102578003B69D31A022B01D903235CE0114B1B687A
:1025880003F00073002BF0D054E0104B00221A60C7
:10259800FEF794FE386108E0FEF790FE02463B69BC
:1025A800D31A022B01D9032345E0064B1B6803F01D
:1025B8000073002BF0D13DE07B689B69012B07D1AC
:1025C800012338E0003802400070004060004742B4
:1025D8001B4B5B68FB607B689B69012B28D0FB6801
:1025E80003F480027B68DB699A4221D1FB6803F01F
:1025F8003F027B681B6A9A421AD1FA6847F6C07391
:1026080013407A68526A9201934211D1FB6803F42D
:1026180040327B689B6A5B08013B1B049A4207D1E6
:10262800FB6803F070627B68DB6A1B069A4201D084
:10263800012300E0002318461837BD4680BD00BFBF
:102648000038024080B584B000AF786039607B689C
:10265800002B01D10123CCE0684B1B6803F0070372
:102668003A689A420CD9654B3A68D2B21A70634BF1
:102678001B6803F007033A689A4201D00123B8E0C7
:102688007B681B6803F00203002B20D07B681B6863
:1026980003F00403002B05D0594B9B68584A43F4B8
:1026A800E05393607B681B6803F00803002B05D098
:1026B800534B9B68524A43F460439360504B9B686A
:1026C80023F0F0027B689B684D4913438B607B685D
:1026D8001B6803F00103002B44D07B685B68012B67
:1026E80007D1474B1B6803F40033002B19D1012392
:1026F8007FE07B685B68022B03D07B685B68032BF9
:1027080007D13F4B1B6803F00073002B09D101234D
:102718006FE03B4B1B6803F00203002B01D1012340
:1027280067E0374B9B6823F003027B685B6834499A
:1027380013438B60FEF7C2FDF8600AE0FEF7BEFDAA
:102748000246FB68D31A41F28832934201D9032327
:102758004FE02B4B9B6803F00C027B685B689B0087
:102768009A42EBD1254B1B6803F007033A689A425B
:102778000CD2224B3A68D2B21A70204B1B6803F075
:1027880007033A689A4201D0012332E07B681B684C
:1027980003F00403002B08D0194B9B6823F4E05284
:1027A8007B68DB68164913438B607B681B6803F002
:1027B8000803002B09D0124B9B6823F460427B6806
:1027C8001B69DB000E4913438B6000F021F80246B9
:1027D8000B4B9B681B0903F00F030A49CB5C22FAD9
:1027E80003F3094A1360094B1B681846FEF722FDDC
:1027F800002318461037BD4680BD00BF003C02408C
:102808000038024044340008000000200400002082
:102818002DE9B04F94B000AF00237B640023FB6424
:1028280000233B640023BB64794B9B6803F00C03D3
:10283800082B0DD0082B00F2E180002B02D0042BCE
:1028480003D0DBE0734BBB64DBE0734BBB64D8E0C5
:102858006F4B5B6803F03F037B646D4B5B6803F46D
:102868008003002B63D06A4B5B689B090022BB6323
:10287800FA63BB6BC3F308033B6300237B63D7E9AD
:102888000C4522462B464FF000004FF0000159013D
:1028980041EAD261500102460B462146511A39617C
:1028A800294663EB01037B614FF000024FF0000300
:1028B800D7E904AB59468B01514643EA9163514627
:1028C8008A015146B2EB0108594663EB01094FF002
:1028D80000024FF000034FEAC90343EA58734FEA76
:1028E800C80290469946234618EB0303BB602B4663
:1028F80049EB0303FB604FF000024FF00003D7E9F8
:10290800024529464B02214643EAD15321464A0251
:10291800104619467B6C0022BB62FA62D7E90A238B
:10292800FDF756FC02460B461346FB6458E0384B4D
:102938005B689B09002218461146C0F308033B62F6
:1029480000237B62D7E9088942464B464FF00000D6
:102958004FF00001590141EAD261500102460B468D
:102968004146B2EB010A494663EB010B4FF0000206
:102978004FF000034FEA8B1343EA9A634FEA8A1237
:10298800B2EB0A0463EB0B054FF000024FF00003B3
:10299800EB0043EA5473E20014461D464346E3182D
:1029A8003B604B4645EB03037B604FF000024FF062
:1029B8000003D7E9004529468B02214643EA915393
:1029C80021468A02104619467B6C0022BB61FA61D7
:1029D800D7E90623FDF7FCFB02460B461346FB64CA
:1029E8000B4B5B681B0C03F0030301335B003B6478
:1029F800FA6C3B6CB2FBF3F3BB6402E0054BBB64BF
:102A080000BFBB6C18465037BD46BDE8B08F00BF4D
:102A1800003802400024F40000127A0080B582B029
:102A280000AF78607B68002B01D101237BE07B68D5
:102A38005B6A002B08D17B685B68B3F5827F09D09D
:102A48007B680022DA6105E07B6800221A617B68F6
:102A580000225A617B6800229A627B6893F85130A1
:102A6800DBB2002B06D17B68002283F850207868FF
:102A7800FEF768FA7B68022283F851207B681B689E
:102A88001A687B681B6822F040021A607B685B68E2
:102A980003F482727B689B6803F404431A437B68DF
:102AA800DB6803F400631A437B681B6903F00203C5
:102AB8001A437B685B6903F001031A437B689B69CF
:102AC80003F400731A437B68DB6903F038031A4385
:102AD8007B681B6A03F0800342EA03017B689B6AF8
:102AE80003F400527B681B680A431A607B689B6981
:102AF8001B0C03F004017B685B6A03F010027B681F
:102B08001B680A435A607B681B68DA697B681B6824
:102B180022F40062DA617B6800225A657B68012230
:102B280083F85120002318460837BD4680BD80B57C
:102B380088B000AFF860B9603B601346FB800023A3
:102B4800FB77FB6893F85030012B01D1022326E173
:102B5800FB68012283F85020FEF7B0FBB861FB88C0
:102B6800FB82FB6893F85130DBB2012B02D00223C1
:102B7800FB770BE1BB68002B02D0FB88002B02D14E
:102B88000123FB7702E1FB68032283F85120FB68ED
:102B980000225A65FB68BA681A63FB68FA889A8645
:102BA800FB68FA88DA86FB6800229A63FB680022D1
:102BB8009A87FB680022DA87FB6800225A64FB6860
:102BC80000221A64FB689B68B3F5004F0FD1FB68BD
:102BD8001B681A68FB681B6822F040021A60FB68D1
:102BE8001B681A68FB681B6842F480421A60FB681D
:102BF8001B681B6803F04003402B07D0FB681B6869
:102C08001A68FB681B6842F040021A60FB68DB68C0
:102C1800B3F5006F4BD1FB685B68002B02D0FB8AD1
:102C2800012B3ED1FB681B6B1A88FB681B68DA60B6
:102C3800FB681B6B9A1CFB681A63FB68DB8E9BB2F4
:102C4800013B9AB2FB68DA862BE0FB681B689B683D
:102C580003F00203022B12D1FB681B6B1A88FB6876
:102C68001B68DA60FB681B6B9A1CFB681A63FB68BD
:102C7800DB8E9BB2013B9AB2FB68DA8611E0FEF765
:102C88001DFB0246BB69D31A3A689A4203D83B68CF
:102C9800B3F1FF3F02D13B68002B02D10323FB773E
:102CA80074E0FB68DB8E9BB2002BCED14CE0FB6856
:102CB8005B68002B02D0FB8A012B40D1FB681A6BA2
:102CC800FB681B680C3312781A70FB681B6B5A1C64
:102CD800FB681A63FB68DB8E9BB2013B9AB2FB6808
:102CE800DA862CE0FB681B689B6803F00203022B62
:102CF80013D1FB681A6BFB681B680C3312781A70C7
:102D0800FB681B6B5A1CFB681A63FB68DB8E9BB263
:102D1800013B9AB2FB68DA8611E0FEF7CFFA024669
:102D2800BB69D31A3A689A4203D83B68B3F1FF3FAC
:102D380002D13B68002B02D10323FB7726E0FB6816
:102D4800DB8E9BB2002BCDD1BA693968F86800F0E8
:102D5800B3F80346002B02D0FB6820225A65FB68B3
:102D68009B68002B0AD100233B61FB681B68DB686A
:102D78003B61FB681B689B683B613B69FB685B6D5B
:102D8800002B02D00123FB7700E000BFFB68012283
:102D980083F85120FB68002283F85020FB7F1846F7
:102DA8002037BD4680BD000080B588B000AFF86010
:102DB800B9603B601346FB71FEF780FA0246BB6AB6
:102DC8009B1A3A681344FB61FEF778FAB861394BED
:102DD8001B685B011B0DFA6902FB03F37B6154E07E
:102DE8003B68B3F1FF3F50D0FEF768FA0246BB6973
:102DF800D31AFA699A4202D9FB69002B3DD1FB68C4
:102E08001B685A68FB681B6822F0E0025A60FB687E
:102E18005B68B3F5827F11D1FB689B68B3F5004FFF
:102E280004D0FB689B68B3F5806F07D1FB681B680B
:102E38001A68FB681B6822F040021A60FB689B6AEC
:102E4800B3F5005F0FD1FB681B681A68FB681B6845
:102E580022F400521A60FB681B681A68FB681B683A
:102E680042F400521A60FB68012283F85120FB6883
:102E7800002283F85020032317E07B69002B01D13F
:102E88000023FB617B69013B7B61FB681B689A68D7
:102E9800BB681340BA689A420CBF01230023DBB217
:102EA8001A46FB799A429BD1002318462037BD4623
:102EB80080BD00BF0000002080B588B002AFF86078
:102EC800B9607A601B4B1B681B4AA2FB03235B0D8E
:102ED8004FF47A7202FB03F37B61FB685B68B3F51E
:102EE800827F12D17B680093BB6800228021F8683A
:102EF800FFF75AFF0346002B16D0FB685B6D43F0C3
:102F08002002FB685A6503230FE07B69002B0AD077
:102F18007B69013B7B61FB681B689B6803F080034E
:102F2800802BF2D000E000BF002318461837BD46BA
:102F380080BD00BF00000020819F5E1680B586B06E
:102F480000AF786039607B68002B01D1012397E0DE
:102F58007B6893F83D30DBB2002B06D17B680022FA
:102F680083F83C207868FEF735F87B68022283F8FE
:102F78003D207B681B689B687A68126823F480434D
:102F880023F0070393607B681A687B68043319464B
:102F9800104600F007F97B681B689B687B617B68BB
:102FA8001B689B693B617B681B681B6AFB603B680D
:102FB8001B687A6913437B613B6923F4407323F0F0
:102FC80003033B613B689A683B689B691B02134398
:102FD8003A6913433B613B6923F4406323F00C03D4
:102FE8003B613B6923F4704323F0F0033B613B688A
:102FF800DA683B68DB691B0213433A6913433B6198
:103008003B681B691A013B681B6A1B0313433A6937
:1030180013433B61FB6823F02203FB60FB6823F04A
:103028008803FB603B685A683B685B691B01134374
:10303800FA681343FB607B681B687A699A607B684F
:103048001B683A699A617B681B68FA681A627B6830
:10305800012283F846207B68012283F83E207B68A2
:10306800012283F83F207B68012283F842207B6895
:10307800012283F843207B68012283F83D20002346
:1030880018461837BD4680BD80B584B000AF78605B
:1030980039607B6893F83E30FB737B6893F83F3068
:1030A800BB737B6893F842307B737B6893F843303B
:1030B8003B733B68002B10D1FB7B012B02D17B7B40
:1030C800012B01D0012369E07B68022283F83E20AE
:1030D8007B68022283F8422031E03B68042B10D140
:1030E800BB7B012B02D13B7B012B01D0012355E097
:1030F8007B68022283F83F207B68022283F8432002
:103108001DE0FB7B012B08D1BB7B012B05D17B7B11
:10311800012B02D13B7B012B01D001233EE07B68D0
:10312800022283F83E207B68022283F83F207B68D6
:10313800022283F842207B68022283F843203B68FE
:10314800002B03D03B68042B08D00FE07B681B687A
:1031580001220021184600F0A5F816E07B681B68DC
:1031680001220421184600F09DF80EE07B681B68D8
:1031780001220021184600F095F87B681B6801229F
:103188000421184600F08EF800BF7B681B681A6897
:103198007B681B6842F001021A600023184610374A
:1031A800BD4680BD80B485B000AF786039607B686B
:1031B8001B68FB607B68344A93420FD07B68B3F18D
:1031C800804F0BD07B68314A934207D07B68304AE6
:1031D800934203D07B682F4A934208D1FB6823F0BF
:1031E8007003FB603B685B68FA681343FB607B68AD
:1031F800254A93421BD07B68B3F1804F17D07B6878
:10320800224A934213D07B68214A93420FD07B68AD
:10321800204A93420BD07B681F4A934207D07B68B1
:103228001E4A934203D07B681D4A934208D1FB682B
:1032380023F44073FB603B68DB68FA681343FB6068
:10324800FB6823F080023B685B691343FB607B6883
:10325800FA681A603B689A687B68DA623B681A68A1
:103268007B689A627B68084A934203D13B681A6973
:103278007B681A637B6801225A6100BF1437BD4618
:103288005DF8047B704700BF000001400004004067
:1032980000080040000C004000400140004401408C
:1032A8000048014080B487B000AFF860B9607A6028
:1032B800BB6803F01F03012202FA03F37B61FB687A
:1032C8001A6A7B69DB431A40FB681A62FB681A6A50
:1032D800BB6803F01F03796801FA03F31A43FB681C
:1032E8001A6200BF1C37BD465DF8047B70470000BA
:1032F80080B485B000AF786039607B6893F83C3063
:10330800012B01D1022350E07B68012283F83C2085
:103318007B68022283F83D207B681B685B68FB6042
:103328007B681B689B68BB60FB6823F07003FB60CD
:103338003B681B68FA681343FB607B681B68FA6884
:103348005A607B681B681C4A934218D07B681B68CC
:10335800B3F1804F13D07B681B68184A93420ED094
:103368007B681B68164A934209D07B681B68154A1C
:10337800934204D07B681B68134A93420CD1BB6804
:1033880023F08003BB603B685B68BA681343BB608B
:103398007B681B68BA689A607B68012283F83D20C5
:1033A8007B68002283F83C20002318461437BD466A
:1033B8005DF8047B704700BF000001400004004036
:1033C80000080040000C00400040014070B50D4D61
:1033D8000D4C641BA4100026A64209D10B4D0C4CC1
:1033E80000F020F8641BA4100026A64205D170BD89
:1033F80055F8043B98470136EEE755F8043B9847E3
:103408000136F2E75C3400085C3400085C340008DC
:103418006034000802440346934200D1704703F821
:10342800011BF9E7F8B500BFF8BC08BC9E46704719
:0C343800F8B500BFF8BC08BC9E46704709
:103444000000000000000000010203040607080950
:08345400B4CDFF7F0100000070
:04345C00BD010008A6
:0434600099010008C6
:0C3464000024F400100000000100000033
:04000005080011A539
:00000001FF
